{
  "contractName": "ChocoToken",
  "abi": [
    {
      "constant": true,
      "inputs": [],
      "name": "name",
      "outputs": [
        {
          "name": "",
          "type": "string"
        }
      ],
      "payable": false,
      "stateMutability": "view",
      "type": "function"
    },
    {
      "constant": true,
      "inputs": [],
      "name": "totalSupply",
      "outputs": [
        {
          "name": "",
          "type": "uint256"
        }
      ],
      "payable": false,
      "stateMutability": "view",
      "type": "function"
    },
    {
      "constant": true,
      "inputs": [],
      "name": "priceOfToken",
      "outputs": [
        {
          "name": "",
          "type": "string"
        }
      ],
      "payable": false,
      "stateMutability": "view",
      "type": "function"
    },
    {
      "constant": true,
      "inputs": [],
      "name": "decimals",
      "outputs": [
        {
          "name": "",
          "type": "uint8"
        }
      ],
      "payable": false,
      "stateMutability": "view",
      "type": "function"
    },
    {
      "constant": true,
      "inputs": [],
      "name": "standard",
      "outputs": [
        {
          "name": "",
          "type": "string"
        }
      ],
      "payable": false,
      "stateMutability": "view",
      "type": "function"
    },
    {
      "constant": true,
      "inputs": [
        {
          "name": "",
          "type": "address"
        }
      ],
      "name": "balanceOf",
      "outputs": [
        {
          "name": "",
          "type": "uint256"
        }
      ],
      "payable": false,
      "stateMutability": "view",
      "type": "function"
    },
    {
      "constant": true,
      "inputs": [],
      "name": "symbol",
      "outputs": [
        {
          "name": "",
          "type": "string"
        }
      ],
      "payable": false,
      "stateMutability": "view",
      "type": "function"
    },
    {
      "constant": true,
      "inputs": [
        {
          "name": "",
          "type": "address"
        },
        {
          "name": "",
          "type": "address"
        }
      ],
      "name": "allowance",
      "outputs": [
        {
          "name": "",
          "type": "uint256"
        }
      ],
      "payable": false,
      "stateMutability": "view",
      "type": "function"
    },
    {
      "inputs": [],
      "payable": false,
      "stateMutability": "nonpayable",
      "type": "constructor"
    },
    {
      "anonymous": false,
      "inputs": [
        {
          "indexed": true,
          "name": "_from",
          "type": "address"
        },
        {
          "indexed": true,
          "name": "_to",
          "type": "address"
        },
        {
          "indexed": false,
          "name": "_value",
          "type": "uint256"
        }
      ],
      "name": "Transfer",
      "type": "event"
    },
    {
      "anonymous": false,
      "inputs": [
        {
          "indexed": true,
          "name": "_owner",
          "type": "address"
        },
        {
          "indexed": true,
          "name": "_spender",
          "type": "address"
        },
        {
          "indexed": false,
          "name": "_value",
          "type": "uint256"
        }
      ],
      "name": "Approval",
      "type": "event"
    },
    {
      "constant": false,
      "inputs": [
        {
          "name": "_to",
          "type": "address"
        },
        {
          "name": "_value",
          "type": "uint256"
        }
      ],
      "name": "transfer",
      "outputs": [
        {
          "name": "success",
          "type": "bool"
        }
      ],
      "payable": false,
      "stateMutability": "nonpayable",
      "type": "function"
    },
    {
      "constant": false,
      "inputs": [
        {
          "name": "_spender",
          "type": "address"
        },
        {
          "name": "_value",
          "type": "uint256"
        }
      ],
      "name": "approve",
      "outputs": [
        {
          "name": "success",
          "type": "bool"
        }
      ],
      "payable": false,
      "stateMutability": "nonpayable",
      "type": "function"
    },
    {
      "constant": false,
      "inputs": [
        {
          "name": "_from",
          "type": "address"
        },
        {
          "name": "_to",
          "type": "address"
        },
        {
          "name": "_value",
          "type": "uint256"
        }
      ],
      "name": "transferFrom",
      "outputs": [
        {
          "name": "success",
          "type": "bool"
        }
      ],
      "payable": false,
      "stateMutability": "nonpayable",
      "type": "function"
    }
  ],
  "bytecode": "0x60c0604052600a60808190527f43686f636f546f6b656e0000000000000000000000000000000000000000000060a090815261003e9160009190610146565b506040805180820190915260048082527f43544f4b00000000000000000000000000000000000000000000000000000000602090920191825261008391600191610146565b5060408051808201909152600f8082527f43686f636f546f6b656e2076302e39000000000000000000000000000000000060209092019182526100c891600291610146565b5060408051808201909152600b8082527fe282ac20302e3030303038000000000000000000000000000000000000000000602090920191825261010d91600391610146565b5064174876e8006004556005805460ff1916905534801561012d57600080fd5b50600454336000908152600660205260409020556101e1565b828054600181600116156101000203166002900490600052602060002090601f016020900481019282601f1061018757805160ff19168380011785556101b4565b828001600101855582156101b4579182015b828111156101b4578251825591602001919060010190610199565b506101c09291506101c4565b5090565b6101de91905b808211156101c057600081556001016101ca565b90565b610670806101f06000396000f3006080604052600436106100ae5763ffffffff7c010000000000000000000000000000000000000000000000000000000060003504166306fdde0381146100b3578063095ea7b31461013d57806318160ddd146101755780631b9cbdfb1461019c57806323b872dd146101b1578063313ce567146101db5780635a3b7e421461020657806370a082311461021b57806395d89b411461023c578063a9059cbb14610251578063dd62ed3e14610275575b600080fd5b3480156100bf57600080fd5b506100c861029c565b6040805160208082528351818301528351919283929083019185019080838360005b838110156101025781810151838201526020016100ea565b50505050905090810190601f16801561012f5780820380516001836020036101000a031916815260200191505b509250505060405180910390f35b34801561014957600080fd5b50610161600160a060020a036004351660243561032a565b604080519115158252519081900360200190f35b34801561018157600080fd5b5061018a610390565b60408051918252519081900360200190f35b3480156101a857600080fd5b506100c8610396565b3480156101bd57600080fd5b50610161600160a060020a03600435811690602435166044356103f1565b3480156101e757600080fd5b506101f06104d0565b6040805160ff9092168252519081900360200190f35b34801561021257600080fd5b506100c86104d9565b34801561022757600080fd5b5061018a600160a060020a0360043516610531565b34801561024857600080fd5b506100c8610543565b34801561025d57600080fd5b50610161600160a060020a036004351660243561059d565b34801561028157600080fd5b5061018a600160a060020a0360043581169060243516610627565b6000805460408051602060026001851615610100026000190190941693909304601f810184900484028201840190925281815292918301828280156103225780601f106102f757610100808354040283529160200191610322565b820191906000526020600020905b81548152906001019060200180831161030557829003601f168201915b505050505081565b336000818152600760209081526040808320600160a060020a038716808552908352818420869055815186815291519394909390927f8c5be1e5ebec7d5bd14f71427d1e84f3dd0314c0f7b2291e5b200ac8c7c3b925928290030190a350600192915050565b60045481565b6003805460408051602060026001851615610100026000190190941693909304601f810184900484028201840190925281815292918301828280156103225780601f106102f757610100808354040283529160200191610322565b600160a060020a03831660009081526006602052604081205482111561041657600080fd5b600160a060020a038416600090815260076020908152604080832033845290915290205482111561044657600080fd5b600160a060020a0380851660008181526006602090815260408083208054889003905593871680835284832080548801905583835260078252848320338452825291849020805487900390558351868152935191937fddf252ad1be2c89b69c2b068fc378daa952ba7f163c4a11628f55a4df523b3ef929081900390910190a35060019392505050565b60055460ff1681565b6002805460408051602060018416156101000260001901909316849004601f810184900484028201840190925281815292918301828280156103225780601f106102f757610100808354040283529160200191610322565b60066020526000908152604090205481565b60018054604080516020600284861615610100026000190190941693909304601f810184900484028201840190925281815292918301828280156103225780601f106102f757610100808354040283529160200191610322565b336000908152600660205260408120548211156105b957600080fd5b33600081815260066020908152604080832080548790039055600160a060020a03871680845292819020805487019055805186815290519293927fddf252ad1be2c89b69c2b068fc378daa952ba7f163c4a11628f55a4df523b3ef929181900390910190a350600192915050565b6007602090815260009283526040808420909152908252902054815600a165627a7a723058200ce01f92f5168c7784d78319cfd046f3bd648a67050e2cc1df55e5304823ab630029",
  "source": "pragma solidity ^0.4.24;\n\ncontract ChocoToken {\n    string  public name = \"ChocoToken\";\n    string  public symbol = \"CTOK\";\n    string  public standard = \"ChocoToken v0.9\";\n    string public priceOfToken = \"€ 0.00008\";\n    uint256 public totalSupply = 100000000000;\n    uint8 public decimals = 0;\n\n    event Transfer(\n        address indexed _from,\n        address indexed _to,\n        uint256 _value\n    );\n\n    event Approval(\n        address indexed _owner,\n        address indexed _spender,\n        uint256 _value\n    );\n\n    mapping(address => uint256) public balanceOf;\n    mapping(address => mapping(address => uint256)) public allowance;\n\n    constructor() public {\n        balanceOf[msg.sender] = totalSupply;\n    }\n\n    function transfer(address _to, uint256 _value) public returns (bool success) {\n        require(balanceOf[msg.sender] >= _value);\n\n        balanceOf[msg.sender] -= _value;\n        balanceOf[_to] += _value;\n\n        emit Transfer(msg.sender, _to, _value);\n\n        return true;\n    }\n\n    function approve(address _spender, uint256 _value) public returns (bool success) {\n        allowance[msg.sender][_spender] = _value;\n\n        emit Approval(msg.sender, _spender, _value);\n\n        return true;\n    }\n\n    function transferFrom(address _from, address _to, uint256 _value) public returns (bool success) {\n        require(_value <= balanceOf[_from]);\n        require(_value <= allowance[_from][msg.sender]);\n\n        balanceOf[_from] -= _value;\n        balanceOf[_to] += _value;\n\n        allowance[_from][msg.sender] -= _value;\n\n        emit Transfer(_from, _to, _value);\n\n        return true;\n    }\n}\n",
  "sourcePath": "/home/choco/Repos/ChocoToken/contracts/ChocoToken.sol",
  "compiler": {
    "name": "solc",
    "version": "0.4.25+commit.59dbf8f1.Emscripten.clang"
  },
  "schemaVersion": "2.0.2",
  "updatedAt": "2019-02-17T12:08:40.992Z"
}